:020000040000FA
:060000002FEF04F01200D6
:020006001200E6
:08000800F2A402D024EF00F085
:100010009EA002D09BEF00F01200D08EF28EF28CE8
:020020001200CC
:0E0022000300B108000086000000020000008C
:10003000B0080000890000000100000094080000E2
:08004000600000001C0000003C
:08004800DACFE4FFE2CFDAFF9A
:10005000E9CFE4FFEACFE4FFF6CFE4FFF7CFE4FF18
:10006000F5CFE4FFF3CFE4FFF4CFE4FFFACFE4FFF2
:1000700000EE00F0100EE80403E3EECFE4FFFBD740
:1000800000EE10F0090EE80403E3EECFE4FFFBD727
:10009000E652F29400016E2B000E6F23702B712339
:1000A000722B7323742B75237607775B773504E205
:1000B00076510008000E775508E3782B000E79235F
:1000C0007A237B23C80E766F776B6251631107E04A
:1000D00005D063C0FAFF00016251F96EFADF60C01B
:1000E000E6FF61C0E6FFD7EC03F0E552E552E552CA
:1000F00000EE18F0090EE80403E3E5CFEDFFFBD7AF
:1001000000EE0FF0100EE80403E3E5CFEDFFFBD7A0
:10011000E5CFFAFFE5CFF4FFE5CFF3FFE5CFF5FF3D
:10012000E5CFF7FFE5CFF6FFE5CFEAFFE5CFE9FF43
:10013000E5CFDAFF1100DACFE4FFE2CFDAFFE9CF53
:10014000E4FFEACFE4FFF6CFE4FFF7CFE4FFF5CF1B
:10015000E4FFF3CFE4FFF4CFE4FFFACFE4FF00EED7
:1001600000F0100EE80403E3EECFE4FFFBD700EE4F
:1001700010F0090EE80403E3EECFE4FFFBD7E652EC
:100180009E9064C0E6FF65C0E6FFBBEC03F0E5525D
:10019000E55200016651671107E005D067C0FAFF1C
:1001A00000016651F96EFADFE55200EE18F0090E13
:1001B000E80403E3E5CFEDFFFBD700EE0FF0100EF0
:1001C000E80403E3E5CFEDFFFBD7E5CFFAFFE5CF8A
:1001D000F4FFE5CFF3FFE5CFF5FFE5CFF7FFE5CF80
:1001E000F6FFE5CFEAFFE5CFE9FFE5CFDAFF110043
:1001F000DACFE4FFE2CFDAFFE9CFE4FFEACFE4FFB2
:10020000F6CFE4FFF7CFE4FFF5CFE4FFF3CFE4FF51
:10021000F4CFE4FFFACFE4FF00EE00F0100EE804A4
:1002200003E3EECFE4FFFBD700EE10F0090EE80485
:1002300003E3EECFE4FFFBD7E652A19268C0E6FFEE
:1002400069C0E6FFBBEC03F0E552E55200016A51DC
:100250006B1107E005D06BC0FAFF00016A51F96E1F
:10026000FADFE55200EE18F0090EE80403E3E5CFEB
:10027000EDFFFBD700EE0FF0100EE80403E3E5CF2F
:10028000EDFFFBD7E5CFFAFFE5CFF4FFE5CFF3FFB6
:10029000E5CFF5FFE5CFF7FFE5CFF6FFE5CFEAFFC6
:1002A000E5CFE9FFE5CFDAFF1100D9CFE6FFE1CFD7
:1002B000D9FF9F0EE66EF3EC03F0E552FD0EDBCFA7
:1002C00060F0FE0EDBCF61F0FB0EDBCF62F0FC0EC8
:1002D000DBCF63F0FD0EDBCFE6FFFE0EDBCFE6FFEC
:1002E000D7EC03F0E552E552E552E7CFD9FF120013
:1002F000D9CFE6FFE1CFD9FFC50EE66E7EEC03F065
:10030000E552FD0EDBCFE6FFFE0EDBCFE6FFBBECDA
:1003100003F0E552E5529F80FD0EDBCF64F0FE0E48
:10032000DBCF65F0FB0EDBCF66F0FC0EDBCF67F0BA
:10033000E552E7CFD9FF1200D9CFE6FFE1CFD9FFD1
:10034000CD0EE66E5DEC03F0E552FD0EDBCFE6FF71
:10035000FE0EDBCFE6FF9FEC03F0E552E552FD0E0B
:10036000DBCF68F0FE0EDBCF69F0FB0EDBCF6AF06F
:10037000FC0EDBCF6BF0E552E7CFD9FF1200D9CFEF
:10038000E6FFE1CFD9FF040EE126F29A78C0DFFF45
:10039000010E79C0DBFF020E7AC0DBFF030E7BC0CB
:1003A000DBFFF28ADECF04F0DECF05F0DECF06F011
:1003B000DDCF07F0DD52DD52040EE15C03E200D038
:0E03C000E16AE552E16EE552E7CFD9FF120087
:0203CE00D9CF85
:1003D000E6FFE1CFD9FF080EE126FB0EDBCF05F0EB
:1003E000FC0EDBCF06F0FD0EDBCF07F0FE0EDBCF01
:1003F00008F0055007E1120E061804E17A0E0718FE
:1004000001E108501EE0055007E1240E061804E142
:10041000F40E071801E1085010E0055008E1480EFD
:10042000061805E1E80E071802E1010E081801E0C0
:1004300000D0700ED36E9B8C08D0600ED36E9B8C58
:1004400004D0500ED36E9B8C00D0050EF36E040EBC
:10045000F3CFDBFF050EDB6A040EDBCF10F0DB060B
:10046000050EDBCF11F001E2DB061050111006E0A3
:10047000080EE66E0FEC04F0E552EED7FB0EDBCF74
:1004800010F0FC0EDBCF11F0FD0EDBCF12F0FE0EF4
:10049000DBCF13F0020ED890133212321132103229
:1004A000E806F9E110C0DFFF010E11C0DBFF020E0C
:1004B00012C0DBFF030E13C0DBFFD9CFE9FFDACF99
:1004C000EAFFE80E096E030E0A6E0B6A0C6AEECFA5
:1004D00004F0EECF05F0EECF06F0EFCF07F039ECE9
:1004E00003F007C0EDFF06C0EDFF05C0EDFF04C03F
:1004F000EFFF13681468156ADFCF16F0010EDBCF2B
:1005000017F0186A1650135C106E17501458116EBD
:1005100018501558126E10C086F011C087F0C26ACC
:100520000F0EC16EB50EC06E800E9C6E98908690B8
:1005300098968696949C948E640EF36E060EF3CF76
:10054000DBFF070EDB6A060EDBCF10F0DB06070EC3
:10055000DBCF11F001E2DB061050111006E0080EAF
:10056000E66E0FEC04F0E552EED7080EE15C02E215
:0E057000E16AE552E16EE552E7CFD9FF1200D5
:02057E00220E4B
:10058000F66E000EF76E000EF86E00010900F550D1
:10059000816F0900F550826F03E1816701D03DD082
:1005A0000900F5507C6F0900F5507D6F0900F5508A
:1005B0007E6F09000900F550E96E0900F550EA6EFA
:1005C000090009000900F5507F6F0900F550806FA0
:1005D00009000900F6CF83F0F7CF84F0F8CF85F05B
:1005E0007CC0F6FF7DC0F7FF7EC0F8FF00017F539F
:1005F00002E1805307E00900F550EE6E7F07F8E254
:100600008007F9D783C0F6FF84C0F7FF85C0F8FFE5
:0C06100000018107000E825BBFD71200C2
:04061C00E66A480E34
:10062000E66EE80EE66E010EE66EE7EC01F0E552CE
:10063000E552E552E5523DEC04F0000EE66EE66A46
:10064000BF0EE66EE00EE66E55EC01F0E552E552A7
:10065000E552E5520DEC00F00001D00E6E5D070E84
:100660006F5905E340EC04F000016E6B6F6BF4D73B
:02067000120076
:0E067200036A026A016A006A200EE76ED890E1
:10068000043605360636073600360136023603369E
:100690000950005C0A5001580B5002580C50035886
:1006A00009E30950005E0A50015A0B50025A0C50DF
:0A06B000035A042AE72EE4D71200D3
:0606BA00D9CFE6FFDACF04
:1006C000E6FFE1CFD9FFE2CFDAFFFD0EDB50360BBC
:1006D000B16EB36AB26AA192FD0EDBAE02D0A08207
:1006E00001D0A092DBA002D0B18E01D0B19EB1802A
:0C06F000E552E5CFDAFFE7CFD9FF12009A
:0406FC00D9CFE6FF6D
:10070000DACFE6FFE1CFD9FFE2CFDAFFFD0EDB5013
:100710007E0BCD6EFD0EDBAC02D0CD8E01D0CD9E1A
:10072000CF6ACE6A9E90DBAE02D09D8001D09D90B4
:0E073000CD80E552E5CFDAFFE7CFD9FF12000A
:02073E00D9CF11
:10074000E6FFDACFE6FFE1CFD9FFE2CFDAFFE652EC
:10075000E652FC0EDBCFDEFFDBCFDDFF010EDB5010
:10076000B36EDF50B26EE552E552E552E5CFDAFFE7
:06077000E7CFD9FF1200E3
:0A077600D9CFE6FFDACFE6FFE1CFAE
:10078000D9FFE2CFDAFFE652E652FC0EDBCFDEFF06
:10079000DBCFDDFF010EDB50CF6EDF50CE6EE552BA
:0E07A000E552E552E5CFDAFFE7CFD9FF1200B0
:0207AE00D9CFA1
:1007B000E6FFDACFE6FFE1CFD9FFE2CFDAFFE6527C
:1007C000E652FC0EDBCFDEFFDBCFDDFF010EDB50A0
:1007D000D76EDF50D66EE552E552E552E5CFDAFF2F
:0607E000E7CFD9FF120073
:0A07E600D9CFE6FFDACFE6FFE1CF3E
:1007F000D9FFE2CFDAFFFD0EDB507F0BD56ED76A53
:10080000D66AF294FD0EDBAE02D0F28A01D0F29AE3
:0E081000D58EE552E5CFDAFFE7CFD9FF120013
:02081E00FF0ECB
:10082000E350196E480E01D04C0EE76EE72EFED74E
:0E083000E76AE72EFED7192EF7D70000120058
:02083E00600E4A
:10084000F36E00EE00F00F0E01D81200EA6002D045
:0E085000EE6AFCD7F350E9601200EE6AFCD7A6
:02085E001EEE8C
:1008600000F02EEE00F0F86A0F9CBFEC02F003ECF3
:0A08700000F00EEC03F0FBD71200BD
:06087A000001896B120071
:100880000001890503E1896B869003D0010E896F11
:04089000868012004C
:0C08940000000000000000000000000058
:1008A00000000000000000000000C8000000000080
:0108B0000047
:0208B100000045
:020000040030CA
:0100010008F6
:010002001BE2
:0100030012EA
:01000400F308
:010005008377
:010006008178
:01000800F106
:010009008076
:01000A00FFF6
:01000B00E014
:01000C00FFF4
:01000D0040B2
:00000001FF
