:020000040000FA
:060000003BEF04F01200CA
:020006001200E6
:08000800F2A402D030EF00F079
:100010009EA002D0A7EF00F01200D08EF28EF28CDC
:020020001200CC
:0E00220005001F090000DC00000002000000C5
:100030001E090000DF00000001000000130900009D
:10004000C70000000B000000F7080000AB00000034
:100050001C000000AC080000600000004B00000025
:10006000DACFE4FFE2CFDAFFE9CFE4FFEACFE4FF43
:10007000F6CFE4FFF7CFE4FFF5CFE4FFF3CFE4FFE3
:10008000F4CFE4FFFACFE4FF00EE00F0100EE80436
:1000900003E3EECFE4FFFBD700EE10F0090EE80417
:1000A00003E3EECFE4FFFBD7E652F2940001B92B55
:1000B000000EBA23BB2BBC23BD2BBE23BF2BC023FA
:1000C000C107C25BC23504E2C1510008000EC2552F
:1000D00008E3C32B000EC423C523C623C80EC16F7B
:1000E000C26BAD51AE1107E005D0AEC0FAFF000102
:1000F000AD51F96EFADFABC0E6FFACC0E6FFE3EC52
:1001000003F0E552E552E55200EE18F0090EE8045E
:1001100003E3E5CFEDFFFBD700EE0FF0100EE80490
:1001200003E3E5CFEDFFFBD7E5CFFAFFE5CFF4FF23
:10013000E5CFF3FFE5CFF5FFE5CFF7FFE5CFF6FF1E
:10014000E5CFEAFFE5CFE9FFE5CFDAFF1100DACF2F
:10015000E4FFE2CFDAFFE9CFE4FFEACFE4FFF6CF36
:10016000E4FFF7CFE4FFF5CFE4FFF3CFE4FFF4CFF4
:10017000E4FFFACFE4FF00EE00F0100EE80403E322
:10018000EECFE4FFFBD700EE10F0090EE80403E326
:10019000EECFE4FFFBD7E6529E90AFC0E6FFB0C0C3
:1001A000E6FFC7EC03F0E552E5520001B151B21190
:1001B00007E005D0B2C0FAFF0001B151F96EFADFD5
:1001C000E55200EE18F0090EE80403E3E5CFEDFF79
:1001D000FBD700EE0FF0100EE80403E3E5CFEDFFD0
:1001E000FBD7E5CFFAFFE5CFF4FFE5CFF3FFE5CF8F
:1001F000F5FFE5CFF7FFE5CFF6FFE5CFEAFFE5CF67
:10020000E9FFE5CFDAFF1100DACFE4FFE2CFDAFF52
:10021000E9CFE4FFEACFE4FFF6CFE4FFF7CFE4FF56
:10022000F5CFE4FFF3CFE4FFF4CFE4FFFACFE4FF30
:1002300000EE00F0100EE80403E3EECFE4FFFBD77E
:1002400000EE10F0090EE80403E3EECFE4FFFBD765
:10025000E652A192B3C0E6FFB4C0E6FFC7EC03F0DC
:10026000E552E5520001B551B61107E005D0B6C020
:10027000FAFF0001B551F96EFADFE55200EE18F011
:10028000090EE80403E3E5CFEDFFFBD700EE0FF026
:10029000100EE80403E3E5CFEDFFFBD7E5CFFAFF4F
:1002A000E5CFF4FFE5CFF3FFE5CFF5FFE5CFF7FFAF
:1002B000E5CFF6FFE5CFEAFFE5CFE9FFE5CFDAFFCF
:1002C0001100D9CFE6FFE1CFD9FF9F0EE66EFFEC1C
:1002D00003F0E552FD0EDBCFABF0FE0EDBCFACF052
:1002E000FB0EDBCFADF0FC0EDBCFAEF0FD0EDBCFB7
:1002F000E6FFFE0EDBCFE6FFE3EC03F0E552E5524E
:10030000E552E7CFD9FF1200D9CFE6FFE1CFD9FF01
:10031000C50EE66E8AEC03F0E552FD0EDBCFE6FF7C
:10032000FE0EDBCFE6FFC7EC03F0E552E5529F80FF
:10033000FD0EDBCFAFF0FE0EDBCFB0F0FB0EDBCF60
:10034000B1F0FC0EDBCFB2F0E552E7CFD9FF1200DF
:10035000D9CFE6FFE1CFD9FFCD0EE66E69EC03F011
:10036000E552FD0EDBCFE6FFFE0EDBCFE6FFABEC8A
:1003700003F0E552E552FD0EDBCFB3F0FE0EDBCF0E
:10038000B4F0FB0EDBCFB5F0FC0EDBCFB6F0E552E0
:10039000E7CFD9FF1200D9CFE6FFE1CFD9FF040E96
:1003A000E126F29AC3C0DFFF010EC4C0DBFF020EDC
:1003B000C5C0DBFF030EC6C0DBFFF28ADECF04F050
:1003C000DECF05F0DECF06F0DDCF07F0DD52DD52E7
:1003D000040EE15C03E200D0E16AE552E16EE55211
:0603E000E7CFD9FF120077
:0A03E600D9CFE6FFE1CFD9FF080EE2
:1003F000E126FB0EDBCF05F0FC0EDBCF06F0FD0E99
:10040000DBCF07F0FE0EDBCF08F0055007E1120E40
:10041000061804E17A0E071801E108501EE00550A5
:1004200007E1240E061804E1F40E071801E1085054
:1004300010E0055008E1480E061805E1E80E07181F
:1004400002E1010E081801E000D0700ED36E9B8C03
:1004500008D0600ED36E9B8C04D0500ED36E9B8C54
:1004600000D0050EF36E040EF3CFDBFF050EDB6A42
:10047000040EDBCF10F0DB06050EDBCF11F001E23E
:10048000DB061050111006E0080EE66E1BEC04F0BF
:10049000E552EED7FB0EDBCF10F0FC0EDBCF11F0F8
:1004A000FD0EDBCF12F0FE0EDBCF13F0020ED89064
:1004B0001332123211321032E806F9E110C0DFFFB8
:1004C000010E11C0DBFF020E12C0DBFF030E13C0D2
:1004D000DBFFD9CFE9FFDACFEAFFE80E096E030EA2
:1004E0000A6E0B6A0C6AEECF04F0EECF05F0EECF89
:1004F00006F0EFCF07F045EC03F007C0EDFF06C0B4
:10050000EDFF05C0EDFF04C0EFFF13681468156A26
:10051000DFCF16F0010EDBCF17F0186A1650135C10
:10052000106E17501458116E18501558126E10C0D6
:10053000DCF011C0DDF0C26A0F0EC16EB50EC06EE8
:10054000800E9C6E9890869098968696949C948E39
:10055000640EF36E060EF3CFDBFF070EDB6A060EAA
:10056000DBCF10F0DB06070EDBCF11F001E2DB067C
:100570001050111006E0080EE66E1BEC04F0E55278
:10058000EED7080EE15C02E2E16AE552E16EE55267
:06059000E7CFD9FF1200C5
:0A059600220EF66E000EF76E000E46
:1005A000F86E00010900F550D76F0900F550D86FBB
:1005B00003E1D76701D03DD00900F550D26F0900A3
:1005C000F550D36F0900F550D46F09000900F550BC
:1005D000E96E0900F550EA6E090009000900F550BE
:1005E000D56F0900F550D66F09000900F6CFD9F094
:1005F000F7CFDAF0F8CFDBF0D2C0F6FFD3C0F7FFC9
:10060000D4C0F8FF0001D55302E1D65307E009003A
:10061000F550EE6ED507F8E2D607F9D7D9C0F6FF48
:10062000DAC0F7FFDBC0F8FF0001D707000ED85B88
:04063000BFD712001E
:0C063400E66A480EE66EE80EE66E010E67
:10064000E66EF3EC01F0E552E552E552E55249EC75
:1006500004F0000EE66EE66ABF0EE66EE00EE66E91
:1006600061EC01F0E552E552E552E5520DEC00F087
:100670000001D00EB95D070EBA5905E34CEC04F049
:0A0680000001B96BBA6BF4D7120049
:06068A00036A026A016A26
:10069000006A200EE76ED890043605360636073617
:1006A00000360136023603360950005C0A50015804
:1006B0000B5002580C50035809E30950005E0A50D1
:1006C000015A0B50025A0C50035A042AE72EE4D761
:0206D000120016
:0E06D200D9CFE6FFDACFE6FFE1CFD9FFE2CFC6
:1006E000DAFFFD0EDB50360BB16EB36AB26AA1922F
:1006F000FD0EDBAE02D0A08201D0A092DBA002D022
:10070000B18E01D0B19EB180E552E5CFDAFFE7CFDF
:04071000D9FF1200FB
:0C071400D9CFE6FFDACFE6FFE1CFD9FF36
:10072000E2CFDAFFFD0EDB507E0BCD6EFD0EDBACB3
:1007300002D0CD8E01D0CD9ECF6ACE6A9E90DBAE28
:1007400002D09D8001D09D90CD80E552E5CFDAFFAB
:06075000E7CFD9FF120003
:0A075600D9CFE6FFDACFE6FFE1CFCE
:10076000D9FFE2CFDAFFE652E652FC0EDBCFDEFF26
:10077000DBCFDDFF010EDB50B36EDF50B26EE55212
:0E078000E552E552E5CFDAFFE7CFD9FF1200D0
:02078E00D9CFC1
:10079000E6FFDACFE6FFE1CFD9FFE2CFDAFFE6529C
:1007A000E652FC0EDBCFDEFFDBCFDDFF010EDB50C0
:1007B000CF6EDF50CE6EE552E552E552E5CFDAFF5F
:0607C000E7CFD9FF120093
:0A07C600D9CFE6FFDACFE6FFE1CF5E
:1007D000D9FFE2CFDAFFE652E652FC0EDBCFDEFFB6
:1007E000DBCFDDFF010EDB50D76EDF50D66EE5525A
:0E07F000E552E552E5CFDAFFE7CFD9FF120060
:0207FE00D9CF51
:10080000E6FFDACFE6FFE1CFD9FFE2CFDAFFFD0E58
:10081000DB507F0BD56ED76AD66AF294FD0EDBAE45
:1008200002D0F28A01D0F29AD58EE552E5CFDAFFF6
:06083000E7CFD9FF120022
:0A083600FF0EE350196E480E01D0CA
:100840004C0EE76EE72EFED7E76AE72EFED7192E8D
:06085000F7D700001200C2
:0A085600600EF36E00EE00F00F0ECE
:1008600001D81200EA6002D0EE6AFCD7F350E960CA
:060870001200EE6AFCD745
:0A0876001EEE00F02EEE00F0F86A0E
:100880000F9CCBEC02F003EC00F01AEC03F0FBD76A
:02089000120054
:0E0892000001DF6B12000001DF0503E1DF6BE8
:0C08A000869003D0010EDF6F86801200EE
:0408AC000000000048
:1008B0000000000000000000000000000000000038
:1008C0000000000000000000000000000000000028
:1008D0000000000000000000000000000000000018
:1008E0000000000000000000000000000000000008
:0708F0000000000000000001
:0908F700000000000000000000F8
:1009000000000000000000000000000000C800001F
:03091000000000E4
:0B0913003F065B4F666D7D077F6F00A5
:01091E0000D8
:01091F0000D7
:0109200000D6
:020000040030CA
:0100010008F6
:010002001BE2
:0100030012EA
:01000400F308
:010005008377
:010006008178
:01000800F106
:010009008076
:01000A00FFF6
:01000B00E014
:01000C00FFF4
:01000D0040B2
:00000001FF
